{
  "address": "0xb4E04AfC63c6901dF4718379D7098ca106c384Fd",
  "abi": [
    {
      "anonymous": false,
      "inputs": [
        {
          "indexed": true,
          "internalType": "address",
          "name": "previousOwner",
          "type": "address"
        },
        {
          "indexed": true,
          "internalType": "address",
          "name": "newOwner",
          "type": "address"
        }
      ],
      "name": "OwnershipTransferred",
      "type": "event"
    },
    {
      "inputs": [
        {
          "internalType": "address",
          "name": "account",
          "type": "address"
        },
        {
          "internalType": "uint256",
          "name": "allocPoint",
          "type": "uint256"
        }
      ],
      "name": "add",
      "outputs": [],
      "stateMutability": "nonpayable",
      "type": "function"
    },
    {
      "inputs": [
        {
          "internalType": "uint256",
          "name": "memberId",
          "type": "uint256"
        }
      ],
      "name": "claim",
      "outputs": [],
      "stateMutability": "nonpayable",
      "type": "function"
    },
    {
      "inputs": [],
      "name": "czfPerBlock",
      "outputs": [
        {
          "internalType": "uint256",
          "name": "",
          "type": "uint256"
        }
      ],
      "stateMutability": "view",
      "type": "function"
    },
    {
      "inputs": [
        {
          "internalType": "uint256",
          "name": "",
          "type": "uint256"
        }
      ],
      "name": "members",
      "outputs": [
        {
          "internalType": "address",
          "name": "account",
          "type": "address"
        },
        {
          "internalType": "uint256",
          "name": "lastUpdatedBlock",
          "type": "uint256"
        },
        {
          "internalType": "uint256",
          "name": "allocPoint",
          "type": "uint256"
        },
        {
          "internalType": "uint256",
          "name": "debt",
          "type": "uint256"
        }
      ],
      "stateMutability": "view",
      "type": "function"
    },
    {
      "inputs": [],
      "name": "owner",
      "outputs": [
        {
          "internalType": "address",
          "name": "",
          "type": "address"
        }
      ],
      "stateMutability": "view",
      "type": "function"
    },
    {
      "inputs": [
        {
          "internalType": "uint256",
          "name": "memberId",
          "type": "uint256"
        }
      ],
      "name": "remove",
      "outputs": [],
      "stateMutability": "nonpayable",
      "type": "function"
    },
    {
      "inputs": [],
      "name": "renounceOwnership",
      "outputs": [],
      "stateMutability": "nonpayable",
      "type": "function"
    },
    {
      "inputs": [
        {
          "internalType": "uint256",
          "name": "amount",
          "type": "uint256"
        }
      ],
      "name": "setCZFPerBlock",
      "outputs": [],
      "stateMutability": "nonpayable",
      "type": "function"
    },
    {
      "inputs": [],
      "name": "token",
      "outputs": [
        {
          "internalType": "address",
          "name": "",
          "type": "address"
        }
      ],
      "stateMutability": "view",
      "type": "function"
    },
    {
      "inputs": [],
      "name": "totalAllocPoints",
      "outputs": [
        {
          "internalType": "uint256",
          "name": "",
          "type": "uint256"
        }
      ],
      "stateMutability": "view",
      "type": "function"
    },
    {
      "inputs": [
        {
          "internalType": "address",
          "name": "newOwner",
          "type": "address"
        }
      ],
      "name": "transferOwnership",
      "outputs": [],
      "stateMutability": "nonpayable",
      "type": "function"
    },
    {
      "inputs": [
        {
          "internalType": "uint256",
          "name": "memberId",
          "type": "uint256"
        },
        {
          "internalType": "uint256",
          "name": "allocPoint",
          "type": "uint256"
        }
      ],
      "name": "update",
      "outputs": [],
      "stateMutability": "nonpayable",
      "type": "function"
    }
  ],
  "transactionHash": "0x272480589c5d0f9624108e519a9935ef377bbe196fba6eaf3f18ccb97c88771c",
  "args": [],
  "solcInputHash": "ef8226eb95ca5dec5aa808ff23b50ac2",
  "bytecode": "0x6080604052737c1608c004f20c3520f70b924e2bfef092da0043600460006101000a81548173ffffffffffffffffffffffffffffffffffffffff021916908373ffffffffffffffffffffffffffffffffffffffff16021790555034801561006557600080fd5b5061008261007761008760201b60201c565b61008f60201b60201c565b610153565b600033905090565b60008060009054906101000a900473ffffffffffffffffffffffffffffffffffffffff169050816000806101000a81548173ffffffffffffffffffffffffffffffffffffffff021916908373ffffffffffffffffffffffffffffffffffffffff1602179055508173ffffffffffffffffffffffffffffffffffffffff168173ffffffffffffffffffffffffffffffffffffffff167f8be0079c531659141344cd1fd0a4f28419497f9722a3daafe3b4186f6b6457e060405160405180910390a35050565b6110f7806101626000396000f3fe608060405234801561001057600080fd5b50600436106100b45760003560e01c8063715018a611610071578063715018a61461017c57806387e4e80a146101865780638da5cb5b146101a2578063f2fde38b146101c0578063f5d82b6b146101dc578063fc0c546a146101f8576100b4565b80631fa36cbe146100b957806327c8ea4d146100d75780632fb565e8146100f5578063379607f5146101115780634cc822151461012d5780635daf08ca14610149575b600080fd5b6100c1610216565b6040516100ce9190610df7565b60405180910390f35b6100df61021c565b6040516100ec9190610df7565b60405180910390f35b61010f600480360381019061010a9190610c8e565b610222565b005b61012b60048036038101906101269190610c65565b61043f565b005b61014760048036038101906101429190610c65565b6105a5565b005b610163600480360381019061015e9190610c65565b61062f565b6040516101739493929190610d72565b60405180910390f35b61018461068f565b005b6101a0600480360381019061019b9190610c65565b610717565b005b6101aa610721565b6040516101b79190610d2e565b60405180910390f35b6101da60048036038101906101d59190610c00565b61074a565b005b6101f660048036038101906101f19190610c29565b610842565b005b610200610aa6565b60405161020d9190610d2e565b60405180910390f35b60025481565b60035481565b61022a610acc565b73ffffffffffffffffffffffffffffffffffffffff16610248610721565b73ffffffffffffffffffffffffffffffffffffffff161461029e576040517f08c379a000000000000000000000000000000000000000000000000000000000815260040161029590610dd7565b60405180910390fd5b600080600090505b60018054905081101561037f57600181815481106102ed577f4e487b7100000000000000000000000000000000000000000000000000000000600052603260045260246000fd5b9060005260206000209060040201915060008260020154141561030f5761036c565b60025482600201548360010154436103279190610f04565b6003546103349190610eaa565b61033e9190610eaa565b6103489190610e79565b82600301600082825461035b9190610e23565b925050819055504382600101819055505b808061037790610f74565b9150506102a6565b5081600184815481106103bb577f4e487b7100000000000000000000000000000000000000000000000000000000600052603260045260246000fd5b9060005260206000209060040201600201546002546103da9190610f04565b6103e49190610e23565b6002819055508160018481548110610425577f4e487b7100000000000000000000000000000000000000000000000000000000600052603260045260246000fd5b906000526020600020906004020160020181905550505050565b60006001828154811061047b577f4e487b7100000000000000000000000000000000000000000000000000000000600052603260045260246000fd5b90600052602060002090600402019050600060025482600201548360010154436104a59190610f04565b6003546104b29190610eaa565b6104bc9190610eaa565b6104c69190610e79565b90508160030154816104d89190610e23565b905060008260030181905550438260010181905550600460009054906101000a900473ffffffffffffffffffffffffffffffffffffffff1673ffffffffffffffffffffffffffffffffffffffff166340c10f198360000160009054906101000a900473ffffffffffffffffffffffffffffffffffffffff16836040518363ffffffff1660e01b815260040161056e929190610d49565b600060405180830381600087803b15801561058857600080fd5b505af115801561059c573d6000803e3d6000fd5b50505050505050565b6105ad610acc565b73ffffffffffffffffffffffffffffffffffffffff166105cb610721565b73ffffffffffffffffffffffffffffffffffffffff1614610621576040517f08c379a000000000000000000000000000000000000000000000000000000000815260040161061890610dd7565b60405180910390fd5b61062c816000610222565b50565b6001818154811061063f57600080fd5b90600052602060002090600402016000915090508060000160009054906101000a900473ffffffffffffffffffffffffffffffffffffffff16908060010154908060020154908060030154905084565b610697610acc565b73ffffffffffffffffffffffffffffffffffffffff166106b5610721565b73ffffffffffffffffffffffffffffffffffffffff161461070b576040517f08c379a000000000000000000000000000000000000000000000000000000000815260040161070290610dd7565b60405180910390fd5b6107156000610ad4565b565b8060038190555050565b60008060009054906101000a900473ffffffffffffffffffffffffffffffffffffffff16905090565b610752610acc565b73ffffffffffffffffffffffffffffffffffffffff16610770610721565b73ffffffffffffffffffffffffffffffffffffffff16146107c6576040517f08c379a00000000000000000000000000000000000000000000000000000000081526004016107bd90610dd7565b60405180910390fd5b600073ffffffffffffffffffffffffffffffffffffffff168173ffffffffffffffffffffffffffffffffffffffff161415610836576040517f08c379a000000000000000000000000000000000000000000000000000000000815260040161082d90610db7565b60405180910390fd5b61083f81610ad4565b50565b61084a610acc565b73ffffffffffffffffffffffffffffffffffffffff16610868610721565b73ffffffffffffffffffffffffffffffffffffffff16146108be576040517f08c379a00000000000000000000000000000000000000000000000000000000081526004016108b590610dd7565b60405180910390fd5b600080600090505b60018054905081101561099f576001818154811061090d577f4e487b7100000000000000000000000000000000000000000000000000000000600052603260045260246000fd5b9060005260206000209060040201915060008260020154141561092f5761098c565b60025482600201548360010154436109479190610f04565b6003546109549190610eaa565b61095e9190610eaa565b6109689190610e79565b82600301600082825461097b9190610e23565b925050819055504382600101819055505b808061099790610f74565b9150506108c6565b506109a8610b98565b83816000019073ffffffffffffffffffffffffffffffffffffffff16908173ffffffffffffffffffffffffffffffffffffffff168152505082816040018181525050438160200181815250508260026000828254610a069190610e23565b92505081905550600181908060018154018082558091505060019003906000526020600020906004020160009091909190915060008201518160000160006101000a81548173ffffffffffffffffffffffffffffffffffffffff021916908373ffffffffffffffffffffffffffffffffffffffff160217905550602082015181600101556040820151816002015560608201518160030155505050505050565b600460009054906101000a900473ffffffffffffffffffffffffffffffffffffffff1681565b600033905090565b60008060009054906101000a900473ffffffffffffffffffffffffffffffffffffffff169050816000806101000a81548173ffffffffffffffffffffffffffffffffffffffff021916908373ffffffffffffffffffffffffffffffffffffffff1602179055508173ffffffffffffffffffffffffffffffffffffffff168173ffffffffffffffffffffffffffffffffffffffff167f8be0079c531659141344cd1fd0a4f28419497f9722a3daafe3b4186f6b6457e060405160405180910390a35050565b6040518060800160405280600073ffffffffffffffffffffffffffffffffffffffff1681526020016000815260200160008152602001600081525090565b600081359050610be581611093565b92915050565b600081359050610bfa816110aa565b92915050565b600060208284031215610c1257600080fd5b6000610c2084828501610bd6565b91505092915050565b60008060408385031215610c3c57600080fd5b6000610c4a85828601610bd6565b9250506020610c5b85828601610beb565b9150509250929050565b600060208284031215610c7757600080fd5b6000610c8584828501610beb565b91505092915050565b60008060408385031215610ca157600080fd5b6000610caf85828601610beb565b9250506020610cc085828601610beb565b9150509250929050565b610cd381610f38565b82525050565b6000610ce6602683610e12565b9150610cf18261101b565b604082019050919050565b6000610d09602083610e12565b9150610d148261106a565b602082019050919050565b610d2881610f6a565b82525050565b6000602082019050610d436000830184610cca565b92915050565b6000604082019050610d5e6000830185610cca565b610d6b6020830184610d1f565b9392505050565b6000608082019050610d876000830187610cca565b610d946020830186610d1f565b610da16040830185610d1f565b610dae6060830184610d1f565b95945050505050565b60006020820190508181036000830152610dd081610cd9565b9050919050565b60006020820190508181036000830152610df081610cfc565b9050919050565b6000602082019050610e0c6000830184610d1f565b92915050565b600082825260208201905092915050565b6000610e2e82610f6a565b9150610e3983610f6a565b9250827fffffffffffffffffffffffffffffffffffffffffffffffffffffffffffffffff03821115610e6e57610e6d610fbd565b5b828201905092915050565b6000610e8482610f6a565b9150610e8f83610f6a565b925082610e9f57610e9e610fec565b5b828204905092915050565b6000610eb582610f6a565b9150610ec083610f6a565b9250817fffffffffffffffffffffffffffffffffffffffffffffffffffffffffffffffff0483118215151615610ef957610ef8610fbd565b5b828202905092915050565b6000610f0f82610f6a565b9150610f1a83610f6a565b925082821015610f2d57610f2c610fbd565b5b828203905092915050565b6000610f4382610f4a565b9050919050565b600073ffffffffffffffffffffffffffffffffffffffff82169050919050565b6000819050919050565b6000610f7f82610f6a565b91507fffffffffffffffffffffffffffffffffffffffffffffffffffffffffffffffff821415610fb257610fb1610fbd565b5b600182019050919050565b7f4e487b7100000000000000000000000000000000000000000000000000000000600052601160045260246000fd5b7f4e487b7100000000000000000000000000000000000000000000000000000000600052601260045260246000fd5b7f4f776e61626c653a206e6577206f776e657220697320746865207a65726f206160008201527f6464726573730000000000000000000000000000000000000000000000000000602082015250565b7f4f776e61626c653a2063616c6c6572206973206e6f7420746865206f776e6572600082015250565b61109c81610f38565b81146110a757600080fd5b50565b6110b381610f6a565b81146110be57600080fd5b5056fea2646970667358221220920b875aab66783dcf43b247c6586cc6742326ecf76f07bcd8a27e55b731ea0864736f6c63430008040033",
  "devdoc": {
    "kind": "dev",
    "methods": {
      "owner()": {
        "details": "Returns the address of the current owner."
      },
      "renounceOwnership()": {
        "details": "Leaves the contract without owner. It will not be possible to call `onlyOwner` functions anymore. Can only be called by the current owner. NOTE: Renouncing ownership will leave the contract without an owner, thereby removing any functionality that is only available to the owner."
      },
      "transferOwnership(address)": {
        "details": "Transfers ownership of the contract to a new account (`newOwner`). Can only be called by the current owner."
      }
    },
    "version": 1
  },
  "userdoc": {
    "kind": "user",
    "methods": {},
    "version": 1
  },
  "storageLayout": {
    "storage": [
      {
        "astId": 7,
        "contract": "contracts/CZFTeamStream.sol:CZFTeamStream",
        "label": "_owner",
        "offset": 0,
        "slot": "0",
        "type": "t_address"
      },
      {
        "astId": 152,
        "contract": "contracts/CZFTeamStream.sol:CZFTeamStream",
        "label": "members",
        "offset": 0,
        "slot": "1",
        "type": "t_array(t_struct(Member)148_storage)dyn_storage"
      },
      {
        "astId": 154,
        "contract": "contracts/CZFTeamStream.sol:CZFTeamStream",
        "label": "totalAllocPoints",
        "offset": 0,
        "slot": "2",
        "type": "t_uint256"
      },
      {
        "astId": 156,
        "contract": "contracts/CZFTeamStream.sol:CZFTeamStream",
        "label": "czfPerBlock",
        "offset": 0,
        "slot": "3",
        "type": "t_uint256"
      },
      {
        "astId": 159,
        "contract": "contracts/CZFTeamStream.sol:CZFTeamStream",
        "label": "token",
        "offset": 0,
        "slot": "4",
        "type": "t_address"
      }
    ],
    "types": {
      "t_address": {
        "encoding": "inplace",
        "label": "address",
        "numberOfBytes": "20"
      },
      "t_array(t_struct(Member)148_storage)dyn_storage": {
        "base": "t_struct(Member)148_storage",
        "encoding": "dynamic_array",
        "label": "struct CZFTeamStream.Member[]",
        "numberOfBytes": "32"
      },
      "t_struct(Member)148_storage": {
        "encoding": "inplace",
        "label": "struct CZFTeamStream.Member",
        "members": [
          {
            "astId": 141,
            "contract": "contracts/CZFTeamStream.sol:CZFTeamStream",
            "label": "account",
            "offset": 0,
            "slot": "0",
            "type": "t_address"
          },
          {
            "astId": 143,
            "contract": "contracts/CZFTeamStream.sol:CZFTeamStream",
            "label": "lastUpdatedBlock",
            "offset": 0,
            "slot": "1",
            "type": "t_uint256"
          },
          {
            "astId": 145,
            "contract": "contracts/CZFTeamStream.sol:CZFTeamStream",
            "label": "allocPoint",
            "offset": 0,
            "slot": "2",
            "type": "t_uint256"
          },
          {
            "astId": 147,
            "contract": "contracts/CZFTeamStream.sol:CZFTeamStream",
            "label": "debt",
            "offset": 0,
            "slot": "3",
            "type": "t_uint256"
          }
        ],
        "numberOfBytes": "128"
      },
      "t_uint256": {
        "encoding": "inplace",
        "label": "uint256",
        "numberOfBytes": "32"
      }
    }
  }
}